{
  "contractName": "InvalidTokenSale",
  "abi": [
    {
      "inputs": [
        {
          "internalType": "address[]",
          "name": "allowedParticipantsValue",
          "type": "address[]"
        },
        {
          "internalType": "bool",
          "name": "isEveryoneAllowedToParticipateAfterDelayValue",
          "type": "bool"
        }
      ],
      "stateMutability": "nonpayable",
      "type": "constructor"
    },
    {
      "anonymous": false,
      "inputs": [
        {
          "indexed": true,
          "internalType": "address",
          "name": "participant",
          "type": "address"
        },
        {
          "indexed": false,
          "internalType": "uint256",
          "name": "allocation",
          "type": "uint256"
        }
      ],
      "name": "Allocated",
      "type": "event"
    },
    {
      "anonymous": false,
      "inputs": [
        {
          "indexed": true,
          "internalType": "address",
          "name": "previousOwner",
          "type": "address"
        },
        {
          "indexed": true,
          "internalType": "address",
          "name": "newOwner",
          "type": "address"
        }
      ],
      "name": "OwnershipTransferred",
      "type": "event"
    },
    {
      "anonymous": false,
      "inputs": [],
      "name": "SaleClosed",
      "type": "event"
    },
    {
      "anonymous": false,
      "inputs": [],
      "name": "SaleStarted",
      "type": "event"
    },
    {
      "inputs": [],
      "name": "owner",
      "outputs": [
        {
          "internalType": "address",
          "name": "",
          "type": "address"
        }
      ],
      "stateMutability": "view",
      "type": "function"
    },
    {
      "inputs": [],
      "name": "renounceOwnership",
      "outputs": [],
      "stateMutability": "nonpayable",
      "type": "function"
    },
    {
      "inputs": [
        {
          "internalType": "address",
          "name": "newOwner",
          "type": "address"
        }
      ],
      "name": "transferOwnership",
      "outputs": [],
      "stateMutability": "nonpayable",
      "type": "function"
    },
    {
      "stateMutability": "payable",
      "type": "receive"
    },
    {
      "inputs": [
        {
          "internalType": "uint256",
          "name": "minimumAllocationValue",
          "type": "uint256"
        },
        {
          "internalType": "uint256",
          "name": "maximumAllocationValue",
          "type": "uint256"
        },
        {
          "internalType": "uint256",
          "name": "totalAllocationsLimitValue",
          "type": "uint256"
        },
        {
          "internalType": "uint256",
          "name": "closingAllocationsRemainderValue",
          "type": "uint256"
        }
      ],
      "name": "startSale",
      "outputs": [],
      "stateMutability": "nonpayable",
      "type": "function"
    },
    {
      "inputs": [],
      "name": "allocate",
      "outputs": [],
      "stateMutability": "payable",
      "type": "function"
    },
    {
      "inputs": [],
      "name": "closeSale",
      "outputs": [],
      "stateMutability": "nonpayable",
      "type": "function"
    },
    {
      "inputs": [
        {
          "internalType": "address[]",
          "name": "participantsValue",
          "type": "address[]"
        }
      ],
      "name": "addAllowedParticipants",
      "outputs": [],
      "stateMutability": "nonpayable",
      "type": "function"
    },
    {
      "inputs": [
        {
          "internalType": "address",
          "name": "participant",
          "type": "address"
        }
      ],
      "name": "allocation",
      "outputs": [
        {
          "internalType": "uint256",
          "name": "",
          "type": "uint256"
        }
      ],
      "stateMutability": "view",
      "type": "function"
    },
    {
      "inputs": [],
      "name": "allowedParticipants",
      "outputs": [
        {
          "internalType": "address[]",
          "name": "",
          "type": "address[]"
        }
      ],
      "stateMutability": "view",
      "type": "function"
    },
    {
      "inputs": [],
      "name": "areAllocationsAccepted",
      "outputs": [
        {
          "internalType": "bool",
          "name": "",
          "type": "bool"
        }
      ],
      "stateMutability": "view",
      "type": "function"
    },
    {
      "inputs": [
        {
          "internalType": "address",
          "name": "participant",
          "type": "address"
        }
      ],
      "name": "canAllocate",
      "outputs": [
        {
          "internalType": "bool",
          "name": "",
          "type": "bool"
        }
      ],
      "stateMutability": "view",
      "type": "function"
    },
    {
      "inputs": [],
      "name": "canCloseSale",
      "outputs": [
        {
          "internalType": "bool",
          "name": "",
          "type": "bool"
        }
      ],
      "stateMutability": "view",
      "type": "function"
    },
    {
      "inputs": [],
      "name": "closingAllocationsRemainder",
      "outputs": [
        {
          "internalType": "uint256",
          "name": "",
          "type": "uint256"
        }
      ],
      "stateMutability": "view",
      "type": "function"
    },
    {
      "inputs": [
        {
          "internalType": "address",
          "name": "participant",
          "type": "address"
        }
      ],
      "name": "isAllowedToParticipate",
      "outputs": [
        {
          "internalType": "bool",
          "name": "",
          "type": "bool"
        }
      ],
      "stateMutability": "view",
      "type": "function"
    },
    {
      "inputs": [],
      "name": "isActive",
      "outputs": [
        {
          "internalType": "bool",
          "name": "",
          "type": "bool"
        }
      ],
      "stateMutability": "view",
      "type": "function"
    },
    {
      "inputs": [],
      "name": "isEveryoneAllowedToParticipateAfterDelay",
      "outputs": [
        {
          "internalType": "bool",
          "name": "",
          "type": "bool"
        }
      ],
      "stateMutability": "view",
      "type": "function"
    },
    {
      "inputs": [],
      "name": "minimumAllocation",
      "outputs": [
        {
          "internalType": "uint256",
          "name": "",
          "type": "uint256"
        }
      ],
      "stateMutability": "view",
      "type": "function"
    },
    {
      "inputs": [],
      "name": "maximumAllocation",
      "outputs": [
        {
          "internalType": "uint256",
          "name": "",
          "type": "uint256"
        }
      ],
      "stateMutability": "view",
      "type": "function"
    },
    {
      "inputs": [],
      "name": "participants",
      "outputs": [
        {
          "internalType": "address[]",
          "name": "",
          "type": "address[]"
        }
      ],
      "stateMutability": "view",
      "type": "function"
    },
    {
      "inputs": [],
      "name": "saleStart",
      "outputs": [
        {
          "internalType": "uint256",
          "name": "",
          "type": "uint256"
        }
      ],
      "stateMutability": "view",
      "type": "function"
    },
    {
      "inputs": [],
      "name": "totalAllocationsLimit",
      "outputs": [
        {
          "internalType": "uint256",
          "name": "",
          "type": "uint256"
        }
      ],
      "stateMutability": "view",
      "type": "function"
    },
    {
      "inputs": [],
      "name": "totalAllocated",
      "outputs": [
        {
          "internalType": "uint256",
          "name": "",
          "type": "uint256"
        }
      ],
      "stateMutability": "view",
      "type": "function"
    },
    {
      "inputs": [],
      "name": "wasStarted",
      "outputs": [
        {
          "internalType": "bool",
          "name": "",
          "type": "bool"
        }
      ],
      "stateMutability": "view",
      "type": "function"
    },
    {
      "inputs": [],
      "name": "wasClosed",
      "outputs": [
        {
          "internalType": "bool",
          "name": "",
          "type": "bool"
        }
      ],
      "stateMutability": "view",
      "type": "function"
    }
  ],
  "bytecode": "0x60806040523480156200001157600080fd5b50604051620023263803806200232683398181016040528101906200003791906200049d565b620000576200004b620000f860201b60201c565b6200010060201b60201c565b60006001819055506000600281905550600060038190555060006004819055506000600581905550600060068190555080600760006101000a81548160ff0219169083151502179055506000600760016101000a81548160ff0219169083151502179055506000600760026101000a81548160ff0219169083151502179055508160099080519060200190620000ef929190620001c4565b50505062000503565b600033905090565b60008060009054906101000a900473ffffffffffffffffffffffffffffffffffffffff169050816000806101000a81548173ffffffffffffffffffffffffffffffffffffffff021916908373ffffffffffffffffffffffffffffffffffffffff1602179055508173ffffffffffffffffffffffffffffffffffffffff168173ffffffffffffffffffffffffffffffffffffffff167f8be0079c531659141344cd1fd0a4f28419497f9722a3daafe3b4186f6b6457e060405160405180910390a35050565b82805482825590600052602060002090810192821562000240579160200282015b828111156200023f5782518260006101000a81548173ffffffffffffffffffffffffffffffffffffffff021916908373ffffffffffffffffffffffffffffffffffffffff16021790555091602001919060010190620001e5565b5b5090506200024f919062000253565b5090565b5b808211156200026e57600081600090555060010162000254565b5090565b6000604051905090565b600080fd5b600080fd5b600080fd5b6000601f19601f8301169050919050565b7f4e487b7100000000000000000000000000000000000000000000000000000000600052604160045260246000fd5b620002d6826200028b565b810181811067ffffffffffffffff82111715620002f857620002f76200029c565b5b80604052505050565b60006200030d62000272565b90506200031b8282620002cb565b919050565b600067ffffffffffffffff8211156200033e576200033d6200029c565b5b602082029050602081019050919050565b600080fd5b600073ffffffffffffffffffffffffffffffffffffffff82169050919050565b6000620003818262000354565b9050919050565b620003938162000374565b81146200039f57600080fd5b50565b600081519050620003b38162000388565b92915050565b6000620003d0620003ca8462000320565b62000301565b90508083825260208201905060208402830185811115620003f657620003f56200034f565b5b835b818110156200042357806200040e8882620003a2565b845260208401935050602081019050620003f8565b5050509392505050565b600082601f83011262000445576200044462000286565b5b815162000457848260208601620003b9565b91505092915050565b60008115159050919050565b620004778162000460565b81146200048357600080fd5b50565b60008151905062000497816200046c565b92915050565b60008060408385031215620004b757620004b66200027c565b5b600083015167ffffffffffffffff811115620004d857620004d762000281565b5b620004e6858286016200042d565b9250506020620004f98582860162000486565b9150509250929050565b611e1380620005136000396000f3fe60806040526004361061014f5760003560e01c80638da5cb5b116100b6578063b81b86301161006f578063b81b863014610456578063c310c22414610493578063c41b2f83146104bc578063e9e209b6146104e7578063ee55efee14610512578063f2fde38b146105295761015e565b80638da5cb5b146103755780639f53def5146103a0578063ab0bcc41146103cb578063abaa9916146103f6578063afabfbf214610400578063b5154c611461042b5761015e565b806345f7f2491161010857806345f7f2491461028957806348861683146102b45780634a24edd6146102df5780636c4470fb14610308578063715018a614610333578063834dea4d1461034a5761015e565b806306f3b72c14610163578063170d7de8146101a05780631b3b08c2146101cb57806322f3e2d4146101f65780632b2e80b9146102215780632bb1547f1461024c5761015e565b3661015e5761015c610552565b005b600080fd5b34801561016f57600080fd5b5061018a6004803603810190610185919061135d565b610867565b60405161019791906113a5565b60405180910390f35b3480156101ac57600080fd5b506101b56108eb565b6040516101c291906113a5565b60405180910390f35b3480156101d757600080fd5b506101e0610917565b6040516101ed91906113a5565b60405180910390f35b34801561020257600080fd5b5061020b61096e565b60405161021891906113a5565b60405180910390f35b34801561022d57600080fd5b5061023661099e565b60405161024391906113a5565b60405180910390f35b34801561025857600080fd5b50610273600480360381019061026e919061135d565b6109b5565b60405161028091906113a5565b60405180910390f35b34801561029557600080fd5b5061029e610ab0565b6040516102ab91906113d9565b60405180910390f35b3480156102c057600080fd5b506102c9610aba565b6040516102d691906113d9565b60405180910390f35b3480156102eb57600080fd5b5061030660048036038101906103019190611420565b610ac4565b005b34801561031457600080fd5b5061031d610c00565b60405161032a9190611545565b60405180910390f35b34801561033f57600080fd5b50610348610c8e565b005b34801561035657600080fd5b5061035f610d16565b60405161036c91906113a5565b60405180910390f35b34801561038157600080fd5b5061038a610d2d565b6040516103979190611576565b60405180910390f35b3480156103ac57600080fd5b506103b5610d56565b6040516103c29190611545565b60405180910390f35b3480156103d757600080fd5b506103e0610de4565b6040516103ed91906113d9565b60405180910390f35b6103fe610552565b005b34801561040c57600080fd5b50610415610dee565b60405161042291906113a5565b60405180910390f35b34801561043757600080fd5b50610440610e05565b60405161044d91906113d9565b60405180910390f35b34801561046257600080fd5b5061047d6004803603810190610478919061135d565b610e0f565b60405161048a91906113d9565b60405180910390f35b34801561049f57600080fd5b506104ba60048036038101906104b591906116ea565b610e58565b005b3480156104c857600080fd5b506104d1610fb9565b6040516104de91906113d9565b60405180910390f35b3480156104f357600080fd5b506104fc610fc3565b60405161050991906113d9565b60405180910390f35b34801561051e57600080fd5b50610527610fcd565b005b34801561053557600080fd5b50610550600480360381019061054b919061135d565b611127565b005b61055a610dee565b610599576040517f08c379a0000000000000000000000000000000000000000000000000000000008152600401610590906117b6565b60405180910390fd5b6105a16108eb565b6105e0576040517f08c379a00000000000000000000000000000000000000000000000000000000081526004016105d790611848565b60405180910390fd5b600254341015610625576040517f08c379a000000000000000000000000000000000000000000000000000000000815260040161061c906118da565b60405180910390fd5b600354600860003373ffffffffffffffffffffffffffffffffffffffff1673ffffffffffffffffffffffffffffffffffffffff16815260200190815260200160002054346106739190611929565b11156106b4576040517f08c379a00000000000000000000000000000000000000000000000000000000081526004016106ab906119f1565b60405180910390fd5b6106bd33610867565b6106fc576040517f08c379a00000000000000000000000000000000000000000000000000000000081526004016106f390611a83565b60405180910390fd5b346005600082825461070e9190611929565b925050819055506000600860003373ffffffffffffffffffffffffffffffffffffffff1673ffffffffffffffffffffffffffffffffffffffff1681526020019081526020016000205414156107c157600a339080600181540180825580915050600190039060005260206000200160009091909190916101000a81548173ffffffffffffffffffffffffffffffffffffffff021916908373ffffffffffffffffffffffffffffffffffffffff1602179055505b34600860003373ffffffffffffffffffffffffffffffffffffffff1673ffffffffffffffffffffffffffffffffffffffff16815260200190815260200160002060008282546108109190611929565b925050819055503373ffffffffffffffffffffffffffffffffffffffff167f472f36e28bb47edb7c69c9e2ac00a77c66b505df54e9c818ac57110b0629e8c33460405161085d91906113d9565b60405180910390a2565b60006108716108eb565b15806108835750610881826109b5565b155b1561089157600090506108e6565b600354600254600860008573ffffffffffffffffffffffffffffffffffffffff1673ffffffffffffffffffffffffffffffffffffffff168152602001908152602001600020546108e19190611929565b111590505b919050565b60006108f561096e565b8015610912575060025460055460045461090f9190611aa3565b10155b905090565b600061092161096e565b801561096957506109306108eb565b158061094d57506005546004546109479190611aa3565b60015410155b80610968575062278d006006546109649190611929565b4210155b5b905090565b6000600760029054906101000a900460ff1680156109995750600760019054906101000a900460ff16155b905090565b6000600760019054906101000a900460ff16905090565b6000600760009054906101000a900460ff1680156109df5750600760029054906101000a900460ff165b80156109fa5750610e106006546109f69190611929565b4210155b15610a085760019050610aab565b60005b600980549050811015610aa5578273ffffffffffffffffffffffffffffffffffffffff1660098281548110610a4357610a42611ad7565b5b9060005260206000200160009054906101000a900473ffffffffffffffffffffffffffffffffffffffff1673ffffffffffffffffffffffffffffffffffffffff161415610a94576001915050610aab565b80610a9e90611b06565b9050610a0b565b50600090505b919050565b6000600554905090565b6000600154905090565b610acc61121f565b73ffffffffffffffffffffffffffffffffffffffff16610aea610d2d565b73ffffffffffffffffffffffffffffffffffffffff1614610b40576040517f08c379a0000000000000000000000000000000000000000000000000000000008152600401610b3790611b9b565b60405180910390fd5b600760029054906101000a900460ff1615610b90576040517f08c379a0000000000000000000000000000000000000000000000000000000008152600401610b8790611c2d565b60405180910390fd5b80600181905550836002819055508260038190555081600481905550426006819055506001600760026101000a81548160ff0219169083151502179055507f912ee23dde46ec889d6748212cce445d667f7041597691dc89e8549ad8bc0acb60405160405180910390a150505050565b6060600a805480602002602001604051908101604052809291908181526020018280548015610c8457602002820191906000526020600020905b8160009054906101000a900473ffffffffffffffffffffffffffffffffffffffff1673ffffffffffffffffffffffffffffffffffffffff1681526020019060010190808311610c3a575b5050505050905090565b610c9661121f565b73ffffffffffffffffffffffffffffffffffffffff16610cb4610d2d565b73ffffffffffffffffffffffffffffffffffffffff1614610d0a576040517f08c379a0000000000000000000000000000000000000000000000000000000008152600401610d0190611b9b565b60405180910390fd5b610d146000611227565b565b6000600760009054906101000a900460ff16905090565b60008060009054906101000a900473ffffffffffffffffffffffffffffffffffffffff16905090565b60606009805480602002602001604051908101604052809291908181526020018280548015610dda57602002820191906000526020600020905b8160009054906101000a900473ffffffffffffffffffffffffffffffffffffffff1673ffffffffffffffffffffffffffffffffffffffff1681526020019060010190808311610d90575b5050505050905090565b6000600654905090565b6000600760029054906101000a900460ff16905090565b6000600254905090565b6000600860008373ffffffffffffffffffffffffffffffffffffffff1673ffffffffffffffffffffffffffffffffffffffff168152602001908152602001600020549050919050565b610e6061121f565b73ffffffffffffffffffffffffffffffffffffffff16610e7e610d2d565b73ffffffffffffffffffffffffffffffffffffffff1614610ed4576040517f08c379a0000000000000000000000000000000000000000000000000000000008152600401610ecb90611b9b565b60405180910390fd5b610edc6108eb565b610f1b576040517f08c379a0000000000000000000000000000000000000000000000000000000008152600401610f1290611cbf565b60405180910390fd5b60005b8151811015610fb5576009828281518110610f3c57610f3b611ad7565b5b60200260200101519080600181540180825580915050600190039060005260206000200160009091909190916101000a81548173ffffffffffffffffffffffffffffffffffffffff021916908373ffffffffffffffffffffffffffffffffffffffff16021790555080610fae90611b06565b9050610f1e565b5050565b6000600454905090565b6000600354905090565b610fd561121f565b73ffffffffffffffffffffffffffffffffffffffff16610ff3610d2d565b73ffffffffffffffffffffffffffffffffffffffff1614611049576040517f08c379a000000000000000000000000000000000000000000000000000000000815260040161104090611b9b565b60405180910390fd5b611051610917565b611090576040517f08c379a000000000000000000000000000000000000000000000000000000000815260040161108790611d2b565b60405180910390fd5b611098610d2d565b73ffffffffffffffffffffffffffffffffffffffff166108fc479081150290604051600060405180830381858888f193505050501580156110dd573d6000803e3d6000fd5b506001600760016101000a81548160ff0219169083151502179055507f4c013bd73202fde3c7cfe26ca486d0882f2c5b2fc9c761b15212f759bd2347dd60405160405180910390a1565b61112f61121f565b73ffffffffffffffffffffffffffffffffffffffff1661114d610d2d565b73ffffffffffffffffffffffffffffffffffffffff16146111a3576040517f08c379a000000000000000000000000000000000000000000000000000000000815260040161119a90611b9b565b60405180910390fd5b600073ffffffffffffffffffffffffffffffffffffffff168173ffffffffffffffffffffffffffffffffffffffff161415611213576040517f08c379a000000000000000000000000000000000000000000000000000000000815260040161120a90611dbd565b60405180910390fd5b61121c81611227565b50565b600033905090565b60008060009054906101000a900473ffffffffffffffffffffffffffffffffffffffff169050816000806101000a81548173ffffffffffffffffffffffffffffffffffffffff021916908373ffffffffffffffffffffffffffffffffffffffff1602179055508173ffffffffffffffffffffffffffffffffffffffff168173ffffffffffffffffffffffffffffffffffffffff167f8be0079c531659141344cd1fd0a4f28419497f9722a3daafe3b4186f6b6457e060405160405180910390a35050565b6000604051905090565b600080fd5b600080fd5b600073ffffffffffffffffffffffffffffffffffffffff82169050919050565b600061132a826112ff565b9050919050565b61133a8161131f565b811461134557600080fd5b50565b60008135905061135781611331565b92915050565b600060208284031215611373576113726112f5565b5b600061138184828501611348565b91505092915050565b60008115159050919050565b61139f8161138a565b82525050565b60006020820190506113ba6000830184611396565b92915050565b6000819050919050565b6113d3816113c0565b82525050565b60006020820190506113ee60008301846113ca565b92915050565b6113fd816113c0565b811461140857600080fd5b50565b60008135905061141a816113f4565b92915050565b6000806000806080858703121561143a576114396112f5565b5b60006114488782880161140b565b94505060206114598782880161140b565b935050604061146a8782880161140b565b925050606061147b8782880161140b565b91505092959194509250565b600081519050919050565b600082825260208201905092915050565b6000819050602082019050919050565b6114bc8161131f565b82525050565b60006114ce83836114b3565b60208301905092915050565b6000602082019050919050565b60006114f282611487565b6114fc8185611492565b9350611507836114a3565b8060005b8381101561153857815161151f88826114c2565b975061152a836114da565b92505060018101905061150b565b5085935050505092915050565b6000602082019050818103600083015261155f81846114e7565b905092915050565b6115708161131f565b82525050565b600060208201905061158b6000830184611567565b92915050565b600080fd5b6000601f19601f8301169050919050565b7f4e487b7100000000000000000000000000000000000000000000000000000000600052604160045260246000fd5b6115df82611596565b810181811067ffffffffffffffff821117156115fe576115fd6115a7565b5b80604052505050565b60006116116112eb565b905061161d82826115d6565b919050565b600067ffffffffffffffff82111561163d5761163c6115a7565b5b602082029050602081019050919050565b600080fd5b600061166661166184611622565b611607565b905080838252602082019050602084028301858111156116895761168861164e565b5b835b818110156116b2578061169e8882611348565b84526020840193505060208101905061168b565b5050509392505050565b600082601f8301126116d1576116d0611591565b5b81356116e1848260208601611653565b91505092915050565b600060208284031215611700576116ff6112f5565b5b600082013567ffffffffffffffff81111561171e5761171d6112fa565b5b61172a848285016116bc565b91505092915050565b600082825260208201905092915050565b7f50726573616c655075626c69633a2043616e6e6f7420616c6c6f63617465207960008201527f6574000000000000000000000000000000000000000000000000000000000000602082015250565b60006117a0602283611733565b91506117ab82611744565b604082019050919050565b600060208201905081810360008301526117cf81611793565b9050919050565b7f50726573616c655075626c69633a2043616e6e6f7420616c6c6f63617465206160008201527f6e796d6f72650000000000000000000000000000000000000000000000000000602082015250565b6000611832602683611733565b915061183d826117d6565b604082019050919050565b6000602082019050818103600083015261186181611825565b9050919050565b7f50726573616c655075626c69633a20416c6c6f636174696f6e20697320746f6f60008201527f20736d616c6c0000000000000000000000000000000000000000000000000000602082015250565b60006118c4602683611733565b91506118cf82611868565b604082019050919050565b600060208201905081810360008301526118f3816118b7565b9050919050565b7f4e487b7100000000000000000000000000000000000000000000000000000000600052601160045260246000fd5b6000611934826113c0565b915061193f836113c0565b9250827fffffffffffffffffffffffffffffffffffffffffffffffffffffffffffffffff03821115611974576119736118fa565b5b828201905092915050565b7f50726573616c655075626c69633a20416c6c6f636174696f6e20697320746f6f60008201527f2062696700000000000000000000000000000000000000000000000000000000602082015250565b60006119db602483611733565b91506119e68261197f565b604082019050919050565b60006020820190508181036000830152611a0a816119ce565b9050919050565b7f50726573616c655075626c69633a204e6f7420616c6c6f77656420746f20706160008201527f7274696369706174650000000000000000000000000000000000000000000000602082015250565b6000611a6d602983611733565b9150611a7882611a11565b604082019050919050565b60006020820190508181036000830152611a9c81611a60565b9050919050565b6000611aae826113c0565b9150611ab9836113c0565b925082821015611acc57611acb6118fa565b5b828203905092915050565b7f4e487b7100000000000000000000000000000000000000000000000000000000600052603260045260246000fd5b6000611b11826113c0565b91507fffffffffffffffffffffffffffffffffffffffffffffffffffffffffffffffff821415611b4457611b436118fa565b5b600182019050919050565b7f4f776e61626c653a2063616c6c6572206973206e6f7420746865206f776e6572600082015250565b6000611b85602083611733565b9150611b9082611b4f565b602082019050919050565b60006020820190508181036000830152611bb481611b78565b9050919050565b7f50726573616c655075626c69633a2053616c652077617320616c72656164792060008201527f7374617274656400000000000000000000000000000000000000000000000000602082015250565b6000611c17602783611733565b9150611c2282611bbb565b604082019050919050565b60006020820190508181036000830152611c4681611c0a565b9050919050565b7f50726573616c655075626c69633a20416c6c6f636174696f6e7320776572652060008201527f616c726561647920636c6f736564000000000000000000000000000000000000602082015250565b6000611ca9602e83611733565b9150611cb482611c4d565b604082019050919050565b60006020820190508181036000830152611cd881611c9c565b9050919050565b7f50726573616c655075626c69633a2043616e6e6f74207061796f757420796574600082015250565b6000611d15602083611733565b9150611d2082611cdf565b602082019050919050565b60006020820190508181036000830152611d4481611d08565b9050919050565b7f4f776e61626c653a206e6577206f776e657220697320746865207a65726f206160008201527f6464726573730000000000000000000000000000000000000000000000000000602082015250565b6000611da7602683611733565b9150611db282611d4b565b604082019050919050565b60006020820190508181036000830152611dd681611d9a565b905091905056fea2646970667358221220b0c5f6e885cce05af020a59de9b69fe83b6459c44533502c0cd51d6cdc04846964736f6c634300080a0033",
  "immutableReferences": {},
  "source": "// SPDX-License-Identifier: MIT\npragma solidity 0.8.10;\n\n// >>>>>>>>>> !IMPORTANT! <<<<<<<<<<<\n// this is an invalid token sale contract which requrie more gas with each allocation, why though ?\n\nimport \"./Ownable.sol\";\n\n/*\n * @dev Allows to create allocations for token sale.\n */\ncontract InvalidTokenSale is Ownable {\n    uint256 constant EVERYONE_ALLOCATION_DELAY = 1 hours;\n    uint256 constant OWNER_PAYOUT_DELAY = 30 days;\n\n    uint256 private _closingAllocationsRemainder;\n    uint256 private _minimumAllocation;\n    uint256 private _maximumAllocation;\n    uint256 private _totalAllocationsLimit;\n    uint256 private _totalAllocated;\n    uint256 private _saleStart;\n    bool private _isEveryoneAllowedToParticipateAfterDelay;\n    bool private _wasClosed;\n    bool private _wasStarted;\n    mapping(address => uint256) private _allocations;\n    address[] private _allowedParticipants;\n    address[] private _participants;\n\n    event SaleStarted();\n    event SaleClosed();\n    event Allocated(address indexed participant, uint256 allocation);\n\n    /**\n     * @dev Initializes sale contract with minimum and maximum amount that can be allocated and total allocation limit.\n     * @param allowedParticipantsValue List of addresses allowed to participate.\n     * @param isEveryoneAllowedToParticipateAfterDelayValue Decides if everyone should be allowed to participate after delay.\n     */\n    constructor(\n        address[] memory allowedParticipantsValue,\n        bool isEveryoneAllowedToParticipateAfterDelayValue\n    ) {\n        _closingAllocationsRemainder = 0;\n        _minimumAllocation = 0;\n        _maximumAllocation = 0;\n        _totalAllocationsLimit = 0;\n        _totalAllocated = 0;\n        _saleStart = 0;\n        _isEveryoneAllowedToParticipateAfterDelay = isEveryoneAllowedToParticipateAfterDelayValue;\n        _wasClosed = false;\n        _wasStarted = false;\n        _allowedParticipants = allowedParticipantsValue;\n    }\n\n    /**\n     * @dev Setups and starts the sale.\n     * @param minimumAllocationValue Minimum allocation value.\n     * @param maximumAllocationValue Maximum allocation value.\n     * @param totalAllocationsLimitValue Total allocations limit.\n     * @param closingAllocationsRemainderValue Remaining amount of allocations allowing to close sale before reaching total allocations limit.\n     */\n    function startSale(\n        uint256 minimumAllocationValue,\n        uint256 maximumAllocationValue,\n        uint256 totalAllocationsLimitValue,\n        uint256 closingAllocationsRemainderValue\n    ) public onlyOwner {\n        require(!_wasStarted, \"PresalePublic: Sale was already started\");\n\n        _closingAllocationsRemainder = closingAllocationsRemainderValue;\n        _minimumAllocation = minimumAllocationValue;\n        _maximumAllocation = maximumAllocationValue;\n        _totalAllocationsLimit = totalAllocationsLimitValue;\n        _saleStart = block.timestamp;\n        _wasStarted = true;\n\n        emit SaleStarted();\n    }\n\n    /**\n     * @dev Allows to allocate currency for the sale.\n     */\n    function allocate() public payable {\n        require(wasStarted(), \"PresalePublic: Cannot allocate yet\");\n        require(\n            areAllocationsAccepted(),\n            \"PresalePublic: Cannot allocate anymore\"\n        );\n        require(\n            (msg.value >= _minimumAllocation),\n            \"PresalePublic: Allocation is too small\"\n        );\n        require(\n            ((msg.value + _allocations[msg.sender]) <= _maximumAllocation),\n            \"PresalePublic: Allocation is too big\"\n        );\n        require(\n            canAllocate(msg.sender),\n            \"PresalePublic: Not allowed to participate\"\n        );\n\n        _totalAllocated += msg.value;\n\n        if (_allocations[msg.sender] == 0) {\n            _participants.push(msg.sender);\n        }\n\n        _allocations[msg.sender] += msg.value;\n\n        emit Allocated(msg.sender, msg.value);\n    }\n\n    /**\n     * @dev Allows the owner to close sale and payout all currency.\n     */\n    function closeSale() public onlyOwner {\n        require(canCloseSale(), \"PresalePublic: Cannot payout yet\");\n\n        payable(owner()).transfer(address(this).balance);\n\n        _wasClosed = true;\n\n        emit SaleClosed();\n    }\n\n    /**\n     * @dev Extend the allowed participants list.\n     */\n    function addAllowedParticipants(address[] memory participantsValue)\n        public\n        onlyOwner\n    {\n        require(\n            areAllocationsAccepted(),\n            \"PresalePublic: Allocations were already closed\"\n        );\n\n        for (uint256 i = 0; i < participantsValue.length; ++i) {\n            _allowedParticipants.push(participantsValue[i]);\n        }\n    }\n\n    /**\n     * @dev Returns amount allocated from given address.\n     * @param participant Address to check.\n     */\n    function allocation(address participant) public view returns (uint256) {\n        return _allocations[participant];\n    }\n\n    /**\n     * @dev Return the allowed participants list.\n     */\n    function allowedParticipants() public view returns (address[] memory) {\n        return _allowedParticipants;\n    }\n\n    /**\n     * @dev Checks if allocations are still accepted.\n     */\n    function areAllocationsAccepted() public view returns (bool) {\n        return (isActive() &&\n            (_totalAllocationsLimit - _totalAllocated) >= _minimumAllocation);\n    }\n\n    /**\n     * @dev Checks if given address can still allocate.\n     */\n    function canAllocate(address participant) public view returns (bool) {\n        if (!areAllocationsAccepted() || !isAllowedToParticipate(participant)) {\n            return false;\n        }\n\n        return ((_allocations[participant] + _minimumAllocation) <=\n            _maximumAllocation);\n    }\n\n    /**\n     * @dev Checks if owner can close sale and payout the currency.\n     */\n    function canCloseSale() public view returns (bool) {\n        return (isActive() &&\n            (!areAllocationsAccepted() ||\n                _closingAllocationsRemainder >=\n                (_totalAllocationsLimit - _totalAllocated) ||\n                block.timestamp >= (_saleStart + OWNER_PAYOUT_DELAY)));\n    }\n\n    /**\n     * @dev Returns remaining amount of allocations allowing to close sale before reaching total allocations limit.\n     */\n    function closingAllocationsRemainder() public view returns (uint256) {\n        return _closingAllocationsRemainder;\n    }\n\n    /**\n     * @dev Checks if given address is allowed to participate.\n     */\n    function isAllowedToParticipate(address participant)\n        public\n        view\n        returns (bool)\n    {\n        if (\n            _isEveryoneAllowedToParticipateAfterDelay &&\n            _wasStarted &&\n            block.timestamp >= (_saleStart + EVERYONE_ALLOCATION_DELAY)\n        ) {\n            return true;\n        }\n\n        for (uint256 i = 0; i < _allowedParticipants.length; ++i) {\n            if (_allowedParticipants[i] == participant) {\n                return true;\n            }\n        }\n\n        return false;\n    }\n\n    /**\n     * @dev Checks if sale is active.\n     */\n    function isActive() public view returns (bool) {\n        return (_wasStarted && !_wasClosed);\n    }\n\n    /**\n     * @dev Checks if everyone is allowed to participate after delay.\n     */\n    function isEveryoneAllowedToParticipateAfterDelay()\n        public\n        view\n        returns (bool)\n    {\n        return _isEveryoneAllowedToParticipateAfterDelay;\n    }\n\n    /**\n     * @dev Returns minimum allocation amount.\n     */\n    function minimumAllocation() public view returns (uint256) {\n        return _minimumAllocation;\n    }\n\n    /**\n     * @dev Returns maximum allocation amount.\n     */\n    function maximumAllocation() public view returns (uint256) {\n        return _maximumAllocation;\n    }\n\n    /**\n     * @dev Returns the participants list.\n     */\n    function participants() public view returns (address[] memory) {\n        return _participants;\n    }\n\n    /**\n     * @dev Returns sale start timestamp.\n     */\n    function saleStart() public view returns (uint256) {\n        return _saleStart;\n    }\n\n    /**\n     * @dev Returns total allocations limit.\n     */\n    function totalAllocationsLimit() public view returns (uint256) {\n        return _totalAllocationsLimit;\n    }\n\n    /**\n     * @dev Returns allocated amount.\n     */\n    function totalAllocated() public view returns (uint256) {\n        return _totalAllocated;\n    }\n\n    /**\n     * @dev Checks if sale was already started.\n     */\n    function wasStarted() public view returns (bool) {\n        return _wasStarted;\n    }\n\n    /**\n     * @dev Checks if sale was already closed.\n     */\n    function wasClosed() public view returns (bool) {\n        return _wasClosed;\n    }\n\n    /**\n     * @dev Fallback receive method.\n     */\n    receive() external payable {\n        allocate();\n    }\n}\n",
  "sourcePath": "/Users/michalkonczak/Desktop/token-contracts/contracts/InvalidTokenSale.sol",
  "compiler": {
    "name": "solc",
    "version": "0.8.10+commit.fc410830.Emscripten.clang"
  },
  "schemaVersion": "3.4.3",
  "updatedAt": "2021-11-28T20:21:35.010Z",
  "devdoc": {
    "kind": "dev",
    "methods": {
      "addAllowedParticipants(address[])": {
        "details": "Extend the allowed participants list."
      },
      "allocate()": {
        "details": "Allows to allocate currency for the sale."
      },
      "allocation(address)": {
        "details": "Returns amount allocated from given address.",
        "params": {
          "participant": "Address to check."
        }
      },
      "allowedParticipants()": {
        "details": "Return the allowed participants list."
      },
      "areAllocationsAccepted()": {
        "details": "Checks if allocations are still accepted."
      },
      "canAllocate(address)": {
        "details": "Checks if given address can still allocate."
      },
      "canCloseSale()": {
        "details": "Checks if owner can close sale and payout the currency."
      },
      "closeSale()": {
        "details": "Allows the owner to close sale and payout all currency."
      },
      "closingAllocationsRemainder()": {
        "details": "Returns remaining amount of allocations allowing to close sale before reaching total allocations limit."
      },
      "constructor": {
        "details": "Initializes sale contract with minimum and maximum amount that can be allocated and total allocation limit.",
        "params": {
          "allowedParticipantsValue": "List of addresses allowed to participate.",
          "isEveryoneAllowedToParticipateAfterDelayValue": "Decides if everyone should be allowed to participate after delay."
        }
      },
      "isActive()": {
        "details": "Checks if sale is active."
      },
      "isAllowedToParticipate(address)": {
        "details": "Checks if given address is allowed to participate."
      },
      "isEveryoneAllowedToParticipateAfterDelay()": {
        "details": "Checks if everyone is allowed to participate after delay."
      },
      "maximumAllocation()": {
        "details": "Returns maximum allocation amount."
      },
      "minimumAllocation()": {
        "details": "Returns minimum allocation amount."
      },
      "owner()": {
        "details": "Returns the address of the current owner."
      },
      "participants()": {
        "details": "Returns the participants list."
      },
      "renounceOwnership()": {
        "details": "Leaves the contract without owner. It will not be possible to call `onlyOwner` functions anymore. Can only be called by the current owner. NOTE: Renouncing ownership will leave the contract without an owner, thereby removing any functionality that is only available to the owner."
      },
      "saleStart()": {
        "details": "Returns sale start timestamp."
      },
      "startSale(uint256,uint256,uint256,uint256)": {
        "details": "Setups and starts the sale.",
        "params": {
          "closingAllocationsRemainderValue": "Remaining amount of allocations allowing to close sale before reaching total allocations limit.",
          "maximumAllocationValue": "Maximum allocation value.",
          "minimumAllocationValue": "Minimum allocation value.",
          "totalAllocationsLimitValue": "Total allocations limit."
        }
      },
      "totalAllocated()": {
        "details": "Returns allocated amount."
      },
      "totalAllocationsLimit()": {
        "details": "Returns total allocations limit."
      },
      "transferOwnership(address)": {
        "details": "Transfers ownership of the contract to a new account (`newOwner`). Can only be called by the current owner."
      },
      "wasClosed()": {
        "details": "Checks if sale was already closed."
      },
      "wasStarted()": {
        "details": "Checks if sale was already started."
      }
    },
    "version": 1
  },
  "userdoc": {
    "kind": "user",
    "methods": {},
    "version": 1
  }
}