{
  "contractName": "SimplePresale",
  "abi": [
    {
      "inputs": [],
      "stateMutability": "nonpayable",
      "type": "constructor"
    },
    {
      "anonymous": false,
      "inputs": [
        {
          "indexed": true,
          "internalType": "address",
          "name": "previousOwner",
          "type": "address"
        },
        {
          "indexed": true,
          "internalType": "address",
          "name": "newOwner",
          "type": "address"
        }
      ],
      "name": "OwnershipTransferred",
      "type": "event"
    },
    {
      "anonymous": false,
      "inputs": [
        {
          "indexed": false,
          "internalType": "address",
          "name": "account",
          "type": "address"
        }
      ],
      "name": "Paused",
      "type": "event"
    },
    {
      "anonymous": false,
      "inputs": [
        {
          "indexed": false,
          "internalType": "address",
          "name": "account",
          "type": "address"
        }
      ],
      "name": "Unpaused",
      "type": "event"
    },
    {
      "inputs": [],
      "name": "MAX_AMOUNT",
      "outputs": [
        {
          "internalType": "uint256",
          "name": "",
          "type": "uint256"
        }
      ],
      "stateMutability": "view",
      "type": "function"
    },
    {
      "inputs": [],
      "name": "MIN_AMOUNT",
      "outputs": [
        {
          "internalType": "uint256",
          "name": "",
          "type": "uint256"
        }
      ],
      "stateMutability": "view",
      "type": "function"
    },
    {
      "inputs": [],
      "name": "TARGET_AMOUNT",
      "outputs": [
        {
          "internalType": "uint256",
          "name": "",
          "type": "uint256"
        }
      ],
      "stateMutability": "view",
      "type": "function"
    },
    {
      "inputs": [],
      "name": "owner",
      "outputs": [
        {
          "internalType": "address",
          "name": "",
          "type": "address"
        }
      ],
      "stateMutability": "view",
      "type": "function"
    },
    {
      "inputs": [],
      "name": "paused",
      "outputs": [
        {
          "internalType": "bool",
          "name": "",
          "type": "bool"
        }
      ],
      "stateMutability": "view",
      "type": "function"
    },
    {
      "inputs": [],
      "name": "renounceOwnership",
      "outputs": [],
      "stateMutability": "nonpayable",
      "type": "function"
    },
    {
      "inputs": [
        {
          "internalType": "address",
          "name": "newOwner",
          "type": "address"
        }
      ],
      "name": "transferOwnership",
      "outputs": [],
      "stateMutability": "nonpayable",
      "type": "function"
    },
    {
      "stateMutability": "payable",
      "type": "receive"
    },
    {
      "inputs": [],
      "name": "allocate",
      "outputs": [],
      "stateMutability": "payable",
      "type": "function"
    },
    {
      "inputs": [],
      "name": "withdraw",
      "outputs": [],
      "stateMutability": "nonpayable",
      "type": "function"
    },
    {
      "inputs": [
        {
          "internalType": "address",
          "name": "participant",
          "type": "address"
        }
      ],
      "name": "allocation",
      "outputs": [
        {
          "internalType": "uint256",
          "name": "",
          "type": "uint256"
        }
      ],
      "stateMutability": "view",
      "type": "function"
    },
    {
      "inputs": [],
      "name": "pause",
      "outputs": [],
      "stateMutability": "nonpayable",
      "type": "function"
    },
    {
      "inputs": [],
      "name": "unpause",
      "outputs": [],
      "stateMutability": "nonpayable",
      "type": "function"
    },
    {
      "inputs": [],
      "name": "raisedAmount",
      "outputs": [
        {
          "internalType": "uint256",
          "name": "",
          "type": "uint256"
        }
      ],
      "stateMutability": "view",
      "type": "function"
    }
  ],
  "bytecode": "0x608060405234801561001057600080fd5b5061002d61002261004c60201b60201c565b61005460201b60201c565b60008060146101000a81548160ff021916908315150217905550610118565b600033905090565b60008060009054906101000a900473ffffffffffffffffffffffffffffffffffffffff169050816000806101000a81548173ffffffffffffffffffffffffffffffffffffffff021916908373ffffffffffffffffffffffffffffffffffffffff1602179055508173ffffffffffffffffffffffffffffffffffffffff168173ffffffffffffffffffffffffffffffffffffffff167f8be0079c531659141344cd1fd0a4f28419497f9722a3daafe3b4186f6b6457e060405160405180910390a35050565b6114e9806101276000396000f3fe6080604052600436106100c65760003560e01c80638da5cb5b1161007f578063c59ee1dc11610059578063c59ee1dc146101fe578063d40dc87014610229578063ddbcb5fa14610254578063f2fde38b1461027f576100d5565b80638da5cb5b1461018c578063abaa9916146101b7578063b81b8630146101c1576100d5565b806330f0dbe0146100da5780633ccfd60b146101055780633f4ba83a1461011c5780635c975abb14610133578063715018a61461015e5780638456cb5914610175576100d5565b366100d5576100d36102a8565b005b600080fd5b3480156100e657600080fd5b506100ef610580565b6040516100fc9190610d6a565b60405180910390f35b34801561011157600080fd5b5061011a61058d565b005b34801561012857600080fd5b50610131610672565b005b34801561013f57600080fd5b5061014861073f565b6040516101559190610da0565b60405180910390f35b34801561016a57600080fd5b50610173610755565b005b34801561018157600080fd5b5061018a6107dd565b005b34801561019857600080fd5b506101a16108ab565b6040516101ae9190610dfc565b60405180910390f35b6101bf6102a8565b005b3480156101cd57600080fd5b506101e860048036038101906101e39190610e48565b6108d4565b6040516101f59190610d6a565b60405180910390f35b34801561020a57600080fd5b5061021361091d565b6040516102209190610d6a565b60405180910390f35b34801561023557600080fd5b5061023e610927565b60405161024b9190610d6a565b60405180910390f35b34801561026057600080fd5b50610269610933565b6040516102769190610d6a565b60405180910390f35b34801561028b57600080fd5b506102a660048036038101906102a19190610e48565b61093f565b005b6102b061073f565b156102f0576040517f08c379a00000000000000000000000000000000000000000000000000000000081526004016102e790610ed2565b60405180910390fd5b6830ca024f987b9000006001541061033d576040517f08c379a000000000000000000000000000000000000000000000000000000000815260040161033490610f64565b60405180910390fd5b6000341415610381576040517f08c379a000000000000000000000000000000000000000000000000000000000815260040161037890610fd0565b60405180910390fd5b6702c68af0bb14000034101580156103a15750674563918244f400003411155b6103e0576040517f08c379a00000000000000000000000000000000000000000000000000000000081526004016103d790611062565b60405180910390fd5b6830ca024f987b900000346001546103f891906110b1565b1115610439576040517f08c379a000000000000000000000000000000000000000000000000000000000815260040161043090611179565b60405180910390fd5b674563918244f4000034600260003373ffffffffffffffffffffffffffffffffffffffff1673ffffffffffffffffffffffffffffffffffffffff1681526020019081526020016000205461048d91906110b1565b11156104ce576040517f08c379a00000000000000000000000000000000000000000000000000000000081526004016104c590611179565b60405180910390fd5b6104e334600154610a3790919063ffffffff16565b60018190555061053b34600260003373ffffffffffffffffffffffffffffffffffffffff1673ffffffffffffffffffffffffffffffffffffffff16815260200190815260200160002054610a3790919063ffffffff16565b600260003373ffffffffffffffffffffffffffffffffffffffff1673ffffffffffffffffffffffffffffffffffffffff16815260200190815260200160002081905550565b6830ca024f987b90000081565b610595610a4d565b73ffffffffffffffffffffffffffffffffffffffff166105b36108ab565b73ffffffffffffffffffffffffffffffffffffffff1614610609576040517f08c379a0000000000000000000000000000000000000000000000000000000008152600401610600906111e5565b60405180910390fd5b6830ca024f987b900000600154101580610627575061062661073f565b5b610666576040517f08c379a000000000000000000000000000000000000000000000000000000000815260040161065d90611251565b60405180910390fd5b6106703347610a55565b565b61067a61073f565b6106b9576040517f08c379a00000000000000000000000000000000000000000000000000000000081526004016106b0906112bd565b60405180910390fd5b6106c1610a4d565b73ffffffffffffffffffffffffffffffffffffffff166106df6108ab565b73ffffffffffffffffffffffffffffffffffffffff1614610735576040517f08c379a000000000000000000000000000000000000000000000000000000000815260040161072c906111e5565b60405180910390fd5b61073d610b49565b565b60008060149054906101000a900460ff16905090565b61075d610a4d565b73ffffffffffffffffffffffffffffffffffffffff1661077b6108ab565b73ffffffffffffffffffffffffffffffffffffffff16146107d1576040517f08c379a00000000000000000000000000000000000000000000000000000000081526004016107c8906111e5565b60405180910390fd5b6107db6000610bea565b565b6107e561073f565b15610825576040517f08c379a000000000000000000000000000000000000000000000000000000000815260040161081c90610ed2565b60405180910390fd5b61082d610a4d565b73ffffffffffffffffffffffffffffffffffffffff1661084b6108ab565b73ffffffffffffffffffffffffffffffffffffffff16146108a1576040517f08c379a0000000000000000000000000000000000000000000000000000000008152600401610898906111e5565b60405180910390fd5b6108a9610cae565b565b60008060009054906101000a900473ffffffffffffffffffffffffffffffffffffffff16905090565b6000600260008373ffffffffffffffffffffffffffffffffffffffff1673ffffffffffffffffffffffffffffffffffffffff168152602001908152602001600020549050919050565b6000600154905090565b674563918244f4000081565b6702c68af0bb14000081565b610947610a4d565b73ffffffffffffffffffffffffffffffffffffffff166109656108ab565b73ffffffffffffffffffffffffffffffffffffffff16146109bb576040517f08c379a00000000000000000000000000000000000000000000000000000000081526004016109b2906111e5565b60405180910390fd5b600073ffffffffffffffffffffffffffffffffffffffff168173ffffffffffffffffffffffffffffffffffffffff161415610a2b576040517f08c379a0000000000000000000000000000000000000000000000000000000008152600401610a229061134f565b60405180910390fd5b610a3481610bea565b50565b60008183610a4591906110b1565b905092915050565b600033905090565b80471015610a98576040517f08c379a0000000000000000000000000000000000000000000000000000000008152600401610a8f906113bb565b60405180910390fd5b60008273ffffffffffffffffffffffffffffffffffffffff1682604051610abe9061140c565b60006040518083038185875af1925050503d8060008114610afb576040519150601f19603f3d011682016040523d82523d6000602084013e610b00565b606091505b5050905080610b44576040517f08c379a0000000000000000000000000000000000000000000000000000000008152600401610b3b90611493565b60405180910390fd5b505050565b610b5161073f565b610b90576040517f08c379a0000000000000000000000000000000000000000000000000000000008152600401610b87906112bd565b60405180910390fd5b60008060146101000a81548160ff0219169083151502179055507f5db9ee0a495bf2e6ff9c91a7834c1ba4fdd244a5e8aa4e537bd38aeae4b073aa610bd3610a4d565b604051610be09190610dfc565b60405180910390a1565b60008060009054906101000a900473ffffffffffffffffffffffffffffffffffffffff169050816000806101000a81548173ffffffffffffffffffffffffffffffffffffffff021916908373ffffffffffffffffffffffffffffffffffffffff1602179055508173ffffffffffffffffffffffffffffffffffffffff168173ffffffffffffffffffffffffffffffffffffffff167f8be0079c531659141344cd1fd0a4f28419497f9722a3daafe3b4186f6b6457e060405160405180910390a35050565b610cb661073f565b15610cf6576040517f08c379a0000000000000000000000000000000000000000000000000000000008152600401610ced90610ed2565b60405180910390fd5b6001600060146101000a81548160ff0219169083151502179055507f62e78cea01bee320cd4e420270b5ea74000d11b0c9f74754ebdbfc544b05a258610d3a610a4d565b604051610d479190610dfc565b60405180910390a1565b6000819050919050565b610d6481610d51565b82525050565b6000602082019050610d7f6000830184610d5b565b92915050565b60008115159050919050565b610d9a81610d85565b82525050565b6000602082019050610db56000830184610d91565b92915050565b600073ffffffffffffffffffffffffffffffffffffffff82169050919050565b6000610de682610dbb565b9050919050565b610df681610ddb565b82525050565b6000602082019050610e116000830184610ded565b92915050565b600080fd5b610e2581610ddb565b8114610e3057600080fd5b50565b600081359050610e4281610e1c565b92915050565b600060208284031215610e5e57610e5d610e17565b5b6000610e6c84828501610e33565b91505092915050565b600082825260208201905092915050565b7f5061757361626c653a2070617573656400000000000000000000000000000000600082015250565b6000610ebc601083610e75565b9150610ec782610e86565b602082019050919050565b60006020820190508181036000830152610eeb81610eaf565b9050919050565b7f546172676574207261697365642e204e6f7420616363657074696e6720616e7960008201527f206d6f7265207061796d656e7473000000000000000000000000000000000000602082015250565b6000610f4e602e83610e75565b9150610f5982610ef2565b604082019050919050565b60006020820190508181036000830152610f7d81610f41565b9050919050565b7f53656e742076616c75652063616e6e6f74206265203021000000000000000000600082015250565b6000610fba601783610e75565b9150610fc582610f84565b602082019050919050565b60006020820190508181036000830152610fe981610fad565b9050919050565b7f53656e742076616c7565206d7573742062652077697468696e204d494e3c3e4d60008201527f415820616d6f756e740000000000000000000000000000000000000000000000602082015250565b600061104c602983610e75565b915061105782610ff0565b604082019050919050565b6000602082019050818103600083015261107b8161103f565b9050919050565b7f4e487b7100000000000000000000000000000000000000000000000000000000600052601160045260246000fd5b60006110bc82610d51565b91506110c783610d51565b9250827fffffffffffffffffffffffffffffffffffffffffffffffffffffffffffffffff038211156110fc576110fb611082565b5b828201905092915050565b7f53656e742076616c756520676f6573206f766572206d6178207461726765742e60008201527f20506c65617365207472792073656e64696e67206c6f77657220616d6f756e74602082015250565b6000611163604083610e75565b915061116e82611107565b604082019050919050565b6000602082019050818103600083015261119281611156565b9050919050565b7f4f776e61626c653a2063616c6c6572206973206e6f7420746865206f776e6572600082015250565b60006111cf602083610e75565b91506111da82611199565b602082019050919050565b600060208201905081810360008301526111fe816111c2565b9050919050565b7f43616e6e6f742077697468647261772079657400000000000000000000000000600082015250565b600061123b601383610e75565b915061124682611205565b602082019050919050565b6000602082019050818103600083015261126a8161122e565b9050919050565b7f5061757361626c653a206e6f7420706175736564000000000000000000000000600082015250565b60006112a7601483610e75565b91506112b282611271565b602082019050919050565b600060208201905081810360008301526112d68161129a565b9050919050565b7f4f776e61626c653a206e6577206f776e657220697320746865207a65726f206160008201527f6464726573730000000000000000000000000000000000000000000000000000602082015250565b6000611339602683610e75565b9150611344826112dd565b604082019050919050565b600060208201905081810360008301526113688161132c565b9050919050565b7f416464726573733a20696e73756666696369656e742062616c616e6365000000600082015250565b60006113a5601d83610e75565b91506113b08261136f565b602082019050919050565b600060208201905081810360008301526113d481611398565b9050919050565b600081905092915050565b50565b60006113f66000836113db565b9150611401826113e6565b600082019050919050565b6000611417826113e9565b9150819050919050565b7f416464726573733a20756e61626c6520746f2073656e642076616c75652c207260008201527f6563697069656e74206d61792068617665207265766572746564000000000000602082015250565b600061147d603a83610e75565b915061148882611421565b604082019050919050565b600060208201905081810360008301526114ac81611470565b905091905056fea264697066735822122020e3d61528af11bdeba379b5d1072284124cc92bb1269467a9b19d5f6173557b64736f6c634300080a0033",
  "immutableReferences": {},
  "source": "// SPDX-License-Identifier: MIT\npragma solidity 0.8.10;\n\nimport \"./Ownable.sol\";\nimport \"./lib/SafeMath.sol\";\nimport \"./lib/Address.sol\";\n\nabstract contract Pausable is Context {\n    /**\n     * @dev Emitted when the pause is triggered by `account`.\n     */\n    event Paused(address account);\n\n    /**\n     * @dev Emitted when the pause is lifted by `account`.\n     */\n    event Unpaused(address account);\n\n    bool private _paused;\n\n    /**\n     * @dev Initializes the contract in unpaused state.\n     */\n    constructor() {\n        _paused = false;\n    }\n\n    /**\n     * @dev Returns true if the contract is paused, and false otherwise.\n     */\n    function paused() public view virtual returns (bool) {\n        return _paused;\n    }\n\n    /**\n     * @dev Modifier to make a function callable only when the contract is not paused.\n     *\n     * Requirements:\n     *\n     * - The contract must not be paused.\n     */\n    modifier whenNotPaused() {\n        require(!paused(), \"Pausable: paused\");\n        _;\n    }\n\n    /**\n     * @dev Modifier to make a function callable only when the contract is paused.\n     *\n     * Requirements:\n     *\n     * - The contract must be paused.\n     */\n    modifier whenPaused() {\n        require(paused(), \"Pausable: not paused\");\n        _;\n    }\n\n    /**\n     * @dev Triggers stopped state.\n     *\n     * Requirements:\n     *\n     * - The contract must not be paused.\n     */\n    function _pause() internal virtual whenNotPaused {\n        _paused = true;\n        emit Paused(_msgSender());\n    }\n\n    /**\n     * @dev Returns to normal state.\n     *\n     * Requirements:\n     *\n     * - The contract must be paused.\n     */\n    function _unpause() internal virtual whenPaused {\n        _paused = false;\n        emit Unpaused(_msgSender());\n    }\n}\n\ncontract SimplePresale is Ownable, Pausable {\n    using Address for address;\n    using SafeMath for uint256;\n\n    uint256 public constant MIN_AMOUNT = 0.2 ether;\n    uint256 public constant MAX_AMOUNT = 5 ether;\n    uint256 public constant TARGET_AMOUNT = 900 ether;\n\n    uint256 private _raisedAmount;\n    mapping(address => uint256) private _allocations;\n\n    constructor() {}\n\n    receive() external payable {\n        allocate();\n    }\n\n    function allocate() public payable whenNotPaused {\n        require(\n            _raisedAmount < TARGET_AMOUNT,\n            \"Target raised. Not accepting any more payments\"\n        );\n        require(msg.value != 0, \"Sent value cannot be 0!\");\n        require(\n            msg.value >= MIN_AMOUNT && msg.value <= MAX_AMOUNT,\n            \"Sent value must be within MIN<>MAX amount\"\n        );\n        require(\n            _raisedAmount + msg.value <= TARGET_AMOUNT,\n            \"Sent value goes over max target. Please try sending lower amount\"\n        );\n        require(\n            _allocations[msg.sender] + msg.value <= MAX_AMOUNT,\n            \"Sent value goes over max target. Please try sending lower amount\"\n        );\n\n        _raisedAmount = _raisedAmount.add(msg.value);\n        _allocations[msg.sender] = _allocations[msg.sender].add(msg.value);\n    }\n\n    function withdraw() external onlyOwner {\n        require(\n            _raisedAmount >= TARGET_AMOUNT || paused(),\n            \"Cannot withdraw yet\"\n        );\n\n        Address.sendValue(msg.sender, address(this).balance);\n    }\n\n    function allocation(address participant) public view returns (uint256) {\n        return _allocations[participant];\n    }\n\n    function pause() external whenNotPaused onlyOwner {\n        super._pause();\n    }\n\n    function unpause() external whenPaused onlyOwner {\n        super._unpause();\n    }\n\n    function raisedAmount() public view returns (uint256) {\n        return _raisedAmount;\n    }\n}\n",
  "sourcePath": "/Users/michalkonczak/Desktop/token-contracts/contracts/TokenSale.sol",
  "compiler": {
    "name": "solc",
    "version": "0.8.10+commit.fc410830.Emscripten.clang"
  },
  "schemaVersion": "3.4.3",
  "updatedAt": "2021-11-29T12:39:25.835Z",
  "devdoc": {
    "kind": "dev",
    "methods": {
      "owner()": {
        "details": "Returns the address of the current owner."
      },
      "paused()": {
        "details": "Returns true if the contract is paused, and false otherwise."
      },
      "renounceOwnership()": {
        "details": "Leaves the contract without owner. It will not be possible to call `onlyOwner` functions anymore. Can only be called by the current owner. NOTE: Renouncing ownership will leave the contract without an owner, thereby removing any functionality that is only available to the owner."
      },
      "transferOwnership(address)": {
        "details": "Transfers ownership of the contract to a new account (`newOwner`). Can only be called by the current owner."
      }
    },
    "version": 1
  },
  "userdoc": {
    "kind": "user",
    "methods": {},
    "version": 1
  }
}