{
  "contractName": "TokenVesting",
  "abi": [
    {
      "inputs": [
        {
          "internalType": "uint256",
          "name": "startTimeValue",
          "type": "uint256"
        },
        {
          "internalType": "uint256",
          "name": "endTimeValue",
          "type": "uint256"
        },
        {
          "internalType": "uint8",
          "name": "startPercentValue",
          "type": "uint8"
        }
      ],
      "stateMutability": "nonpayable",
      "type": "constructor"
    },
    {
      "anonymous": false,
      "inputs": [
        {
          "indexed": true,
          "internalType": "address",
          "name": "previousOwner",
          "type": "address"
        },
        {
          "indexed": true,
          "internalType": "address",
          "name": "newOwner",
          "type": "address"
        }
      ],
      "name": "OwnershipTransferred",
      "type": "event"
    },
    {
      "anonymous": false,
      "inputs": [
        {
          "indexed": false,
          "internalType": "address",
          "name": "beneficiary",
          "type": "address"
        },
        {
          "indexed": false,
          "internalType": "uint256",
          "name": "amount",
          "type": "uint256"
        }
      ],
      "name": "TokensReleased",
      "type": "event"
    },
    {
      "inputs": [],
      "name": "owner",
      "outputs": [
        {
          "internalType": "address",
          "name": "",
          "type": "address"
        }
      ],
      "stateMutability": "view",
      "type": "function"
    },
    {
      "inputs": [],
      "name": "renounceOwnership",
      "outputs": [],
      "stateMutability": "nonpayable",
      "type": "function"
    },
    {
      "inputs": [
        {
          "internalType": "address",
          "name": "newOwner",
          "type": "address"
        }
      ],
      "name": "transferOwnership",
      "outputs": [],
      "stateMutability": "nonpayable",
      "type": "function"
    },
    {
      "inputs": [
        {
          "internalType": "address[]",
          "name": "beneficiaries",
          "type": "address[]"
        },
        {
          "internalType": "uint256[]",
          "name": "balances",
          "type": "uint256[]"
        }
      ],
      "name": "addBeneficiaries",
      "outputs": [],
      "stateMutability": "nonpayable",
      "type": "function"
    },
    {
      "inputs": [],
      "name": "lock",
      "outputs": [],
      "stateMutability": "nonpayable",
      "type": "function"
    },
    {
      "inputs": [],
      "name": "isLocked",
      "outputs": [
        {
          "internalType": "bool",
          "name": "",
          "type": "bool"
        }
      ],
      "stateMutability": "view",
      "type": "function"
    },
    {
      "inputs": [],
      "name": "release",
      "outputs": [],
      "stateMutability": "nonpayable",
      "type": "function"
    },
    {
      "inputs": [
        {
          "internalType": "address",
          "name": "tokenValue",
          "type": "address"
        }
      ],
      "name": "setToken",
      "outputs": [],
      "stateMutability": "nonpayable",
      "type": "function"
    },
    {
      "inputs": [
        {
          "internalType": "address",
          "name": "beneficiary",
          "type": "address"
        }
      ],
      "name": "currentBalance",
      "outputs": [
        {
          "internalType": "uint256",
          "name": "",
          "type": "uint256"
        }
      ],
      "stateMutability": "view",
      "type": "function"
    },
    {
      "inputs": [
        {
          "internalType": "address",
          "name": "beneficiary",
          "type": "address"
        }
      ],
      "name": "initialBalance",
      "outputs": [
        {
          "internalType": "uint256",
          "name": "",
          "type": "uint256"
        }
      ],
      "stateMutability": "view",
      "type": "function"
    },
    {
      "inputs": [
        {
          "internalType": "address",
          "name": "beneficiary",
          "type": "address"
        }
      ],
      "name": "totalWithdrawn",
      "outputs": [
        {
          "internalType": "uint256",
          "name": "",
          "type": "uint256"
        }
      ],
      "stateMutability": "view",
      "type": "function"
    },
    {
      "inputs": [
        {
          "internalType": "address",
          "name": "beneficiary",
          "type": "address"
        }
      ],
      "name": "withdrawalLimit",
      "outputs": [
        {
          "internalType": "uint256",
          "name": "",
          "type": "uint256"
        }
      ],
      "stateMutability": "view",
      "type": "function"
    },
    {
      "inputs": [
        {
          "internalType": "uint256",
          "name": "initialBalanceValue",
          "type": "uint256"
        }
      ],
      "name": "amountAllowedToWithdraw",
      "outputs": [
        {
          "internalType": "uint256",
          "name": "",
          "type": "uint256"
        }
      ],
      "stateMutability": "view",
      "type": "function"
    },
    {
      "inputs": [],
      "name": "token",
      "outputs": [
        {
          "internalType": "address",
          "name": "",
          "type": "address"
        }
      ],
      "stateMutability": "view",
      "type": "function"
    },
    {
      "inputs": [],
      "name": "balance",
      "outputs": [
        {
          "internalType": "uint256",
          "name": "",
          "type": "uint256"
        }
      ],
      "stateMutability": "view",
      "type": "function"
    },
    {
      "inputs": [],
      "name": "endTime",
      "outputs": [
        {
          "internalType": "uint256",
          "name": "",
          "type": "uint256"
        }
      ],
      "stateMutability": "view",
      "type": "function"
    },
    {
      "inputs": [],
      "name": "startTime",
      "outputs": [
        {
          "internalType": "uint256",
          "name": "",
          "type": "uint256"
        }
      ],
      "stateMutability": "view",
      "type": "function"
    },
    {
      "inputs": [],
      "name": "startPercent",
      "outputs": [
        {
          "internalType": "uint256",
          "name": "",
          "type": "uint256"
        }
      ],
      "stateMutability": "view",
      "type": "function"
    }
  ],
  "bytecode": "0x60e06040523480156200001157600080fd5b5060405162002b1338038062002b13833981810160405281019062000037919062000254565b620000576200004b6200010a60201b60201c565b6200011260201b60201c565b60648160ff161115620000a1576040517f08c379a000000000000000000000000000000000000000000000000000000000815260040162000098906200035d565b60405180910390fd5b828211620000e6576040517f08c379a0000000000000000000000000000000000000000000000000000000008152600401620000dd90620003f5565b60405180910390fd5b81608081815250508260a081815250508060ff1660c0818152505050505062000417565b600033905090565b60008060009054906101000a900473ffffffffffffffffffffffffffffffffffffffff169050816000806101000a81548173ffffffffffffffffffffffffffffffffffffffff021916908373ffffffffffffffffffffffffffffffffffffffff1602179055508173ffffffffffffffffffffffffffffffffffffffff168173ffffffffffffffffffffffffffffffffffffffff167f8be0079c531659141344cd1fd0a4f28419497f9722a3daafe3b4186f6b6457e060405160405180910390a35050565b600080fd5b6000819050919050565b620001f081620001db565b8114620001fc57600080fd5b50565b6000815190506200021081620001e5565b92915050565b600060ff82169050919050565b6200022e8162000216565b81146200023a57600080fd5b50565b6000815190506200024e8162000223565b92915050565b60008060006060848603121562000270576200026f620001d6565b5b60006200028086828701620001ff565b93505060206200029386828701620001ff565b9250506040620002a6868287016200023d565b9150509250925092565b600082825260208201905092915050565b7f546f6b656e56657374696e673a2050657263656e74206f6620746f6b656e732060008201527f617661696c61626c6520616674657220696e697469616c2074696d652063616e60208201527f6e6f742062652067726561746572207468616e20313030000000000000000000604082015250565b600062000345605783620002b0565b91506200035282620002c1565b606082019050919050565b60006020820190508181036000830152620003788162000336565b9050919050565b7f546f6b656e56657374696e673a20456e642074696d65206d757374206265206760008201527f726561746572207468616e2073746172742074696d6500000000000000000000602082015250565b6000620003dd603683620002b0565b9150620003ea826200037f565b604082019050919050565b600060208201905081810360008301526200041081620003ce565b9050919050565b60805160a05160c05161269b6200047860003960008181610545015261076701526000818161044f015281816104b5015281816104ec015281816108f301526109f20152600081816104810152818161050d015261078f015261269b6000f3fe608060405234801561001057600080fd5b50600436106101165760003560e01c806386d1a69f116100a2578063a961065511610071578063a9610655146102d1578063b69ef8a8146102ed578063f2fde38b1461030b578063f83d08ba14610327578063fc0c546a1461033157610116565b806386d1a69f1461025b5780638da5cb5b146102655780639e546c3814610283578063a4e2d634146102b357610116565b80633197cbb6116100e95780633197cbb6146101b557806332cfbe90146101d357806337bb25bc14610203578063715018a61461023357806378e979251461023d57610116565b80630a64143a1461011b5780630e1df9a31461014b578063144fa6d71461017b5780632a804efe14610197575b600080fd5b61013560048036038101906101309190611730565b61034f565b6040516101429190611776565b60405180910390f35b610165600480360381019061016091906117bd565b6103e9565b6040516101729190611776565b60405180910390f35b61019560048036038101906101909190611730565b610612565b005b61019f610763565b6040516101ac9190611776565b60405180910390f35b6101bd61078b565b6040516101ca9190611776565b60405180910390f35b6101ed60048036038101906101e89190611730565b6107b3565b6040516101fa9190611776565b60405180910390f35b61021d60048036038101906102189190611730565b6107fc565b60405161022a9190611776565b60405180910390f35b61023b610867565b005b6102456108ef565b6040516102529190611776565b60405180910390f35b610263610917565b005b61026d610d47565b60405161027a91906117f9565b60405180910390f35b61029d60048036038101906102989190611730565b610d70565b6040516102aa9190611776565b60405180910390f35b6102bb610db9565b6040516102c8919061182f565b60405180910390f35b6102eb60048036038101906102e69190611a66565b610dcf565b005b6102f5610fe9565b6040516103029190611776565b60405180910390f35b61032560048036038101906103209190611730565b6110ec565b005b61032f6111e4565b005b61033961127d565b60405161034691906117f9565b60405180910390f35b60006103e2600260008473ffffffffffffffffffffffffffffffffffffffff1673ffffffffffffffffffffffffffffffffffffffff16815260200190815260200160002054600360008573ffffffffffffffffffffffffffffffffffffffff1673ffffffffffffffffffffffffffffffffffffffff168152602001908152602001600020546112a790919063ffffffff16565b9050919050565b6000808214806104475750600073ffffffffffffffffffffffffffffffffffffffff16600160009054906101000a900473ffffffffffffffffffffffffffffffffffffffff1673ffffffffffffffffffffffffffffffffffffffff16145b8061047157507f000000000000000000000000000000000000000000000000000000000000000042105b1561047f576000905061060d565b7f000000000000000000000000000000000000000000000000000000000000000042106104ae5781905061060d565b60006104e37f0000000000000000000000000000000000000000000000000000000000000000426112a790919063ffffffff16565b9050600061053a7f00000000000000000000000000000000000000000000000000000000000000007f00000000000000000000000000000000000000000000000000000000000000006112a790919063ffffffff16565b90506000610572600a7f00000000000000000000000000000000000000000000000000000000000000006112bd90919063ffffffff16565b905060006105af836105a1610592856103e86112a790919063ffffffff16565b876112bd90919063ffffffff16565b6112d390919063ffffffff16565b905060006105c682846112e990919063ffffffff16565b90506103e881106105de57869550505050505061060d565b6106056103e86105f789846112bd90919063ffffffff16565b6112d390919063ffffffff16565b955050505050505b919050565b61061a6112ff565b73ffffffffffffffffffffffffffffffffffffffff16610638610d47565b73ffffffffffffffffffffffffffffffffffffffff161461068e576040517f08c379a000000000000000000000000000000000000000000000000000000000815260040161068590611b3b565b60405180910390fd5b600073ffffffffffffffffffffffffffffffffffffffff16600160009054906101000a900473ffffffffffffffffffffffffffffffffffffffff1673ffffffffffffffffffffffffffffffffffffffff161461071f576040517f08c379a000000000000000000000000000000000000000000000000000000000815260040161071690611bcd565b60405180910390fd5b80600160006101000a81548173ffffffffffffffffffffffffffffffffffffffff021916908373ffffffffffffffffffffffffffffffffffffffff16021790555050565b60007f0000000000000000000000000000000000000000000000000000000000000000905090565b60007f0000000000000000000000000000000000000000000000000000000000000000905090565b6000600360008373ffffffffffffffffffffffffffffffffffffffff1673ffffffffffffffffffffffffffffffffffffffff168152602001908152602001600020549050919050565b600061086061080a8361034f565b610852600360008673ffffffffffffffffffffffffffffffffffffffff1673ffffffffffffffffffffffffffffffffffffffff168152602001908152602001600020546103e9565b6112a790919063ffffffff16565b9050919050565b61086f6112ff565b73ffffffffffffffffffffffffffffffffffffffff1661088d610d47565b73ffffffffffffffffffffffffffffffffffffffff16146108e3576040517f08c379a00000000000000000000000000000000000000000000000000000000081526004016108da90611b3b565b60405180910390fd5b6108ed6000611307565b565b60007f0000000000000000000000000000000000000000000000000000000000000000905090565b600073ffffffffffffffffffffffffffffffffffffffff16600160009054906101000a900473ffffffffffffffffffffffffffffffffffffffff1673ffffffffffffffffffffffffffffffffffffffff1614156109a9576040517f08c379a00000000000000000000000000000000000000000000000000000000081526004016109a090611c39565b60405180910390fd5b6109b1610db9565b6109f0576040517f08c379a00000000000000000000000000000000000000000000000000000000081526004016109e790611ca5565b60405180910390fd5b7f0000000000000000000000000000000000000000000000000000000000000000421015610a53576040517f08c379a0000000000000000000000000000000000000000000000000000000008152600401610a4a90611d11565b60405180910390fd5b6000600360003373ffffffffffffffffffffffffffffffffffffffff1673ffffffffffffffffffffffffffffffffffffffff1681526020019081526020016000205411610ad5576040517f08c379a0000000000000000000000000000000000000000000000000000000008152600401610acc90611da3565b60405180910390fd5b6000600260003373ffffffffffffffffffffffffffffffffffffffff1673ffffffffffffffffffffffffffffffffffffffff1681526020019081526020016000205411610b57576040517f08c379a0000000000000000000000000000000000000000000000000000000008152600401610b4e90611e35565b60405180910390fd5b6000610b62336107fc565b905060008111610ba7576040517f08c379a0000000000000000000000000000000000000000000000000000000008152600401610b9e90611ec7565b60405180910390fd5b80600260003373ffffffffffffffffffffffffffffffffffffffff1673ffffffffffffffffffffffffffffffffffffffff168152602001908152602001600020541015610c29576040517f08c379a0000000000000000000000000000000000000000000000000000000008152600401610c2090611f33565b60405180910390fd5b610c7b81600260003373ffffffffffffffffffffffffffffffffffffffff1673ffffffffffffffffffffffffffffffffffffffff168152602001908152602001600020546112a790919063ffffffff16565b600260003373ffffffffffffffffffffffffffffffffffffffff1673ffffffffffffffffffffffffffffffffffffffff16815260200190815260200160002081905550610d0b3382600160009054906101000a900473ffffffffffffffffffffffffffffffffffffffff1673ffffffffffffffffffffffffffffffffffffffff166113cb9092919063ffffffff16565b7fc7798891864187665ac6dd119286e44ec13f014527aeeb2b8eb3fd413df931793382604051610d3c929190611f53565b60405180910390a150565b60008060009054906101000a900473ffffffffffffffffffffffffffffffffffffffff16905090565b6000600260008373ffffffffffffffffffffffffffffffffffffffff1673ffffffffffffffffffffffffffffffffffffffff168152602001908152602001600020549050919050565b60008060149054906101000a900460ff16905090565b610dd76112ff565b73ffffffffffffffffffffffffffffffffffffffff16610df5610d47565b73ffffffffffffffffffffffffffffffffffffffff1614610e4b576040517f08c379a0000000000000000000000000000000000000000000000000000000008152600401610e4290611b3b565b60405180910390fd5b8051825114610e8f576040517f08c379a0000000000000000000000000000000000000000000000000000000008152600401610e8690612014565b60405180910390fd5b610e97610db9565b15610ed7576040517f08c379a0000000000000000000000000000000000000000000000000000000008152600401610ece906120a6565b60405180910390fd5b60005b8251811015610fe457818181518110610ef657610ef56120c6565b5b602002602001015160026000858481518110610f1557610f146120c6565b5b602002602001015173ffffffffffffffffffffffffffffffffffffffff1673ffffffffffffffffffffffffffffffffffffffff16815260200190815260200160002081905550818181518110610f6e57610f6d6120c6565b5b602002602001015160036000858481518110610f8d57610f8c6120c6565b5b602002602001015173ffffffffffffffffffffffffffffffffffffffff1673ffffffffffffffffffffffffffffffffffffffff1681526020019081526020016000208190555080610fdd90612124565b9050610eda565b505050565b60008073ffffffffffffffffffffffffffffffffffffffff16600160009054906101000a900473ffffffffffffffffffffffffffffffffffffffff1673ffffffffffffffffffffffffffffffffffffffff16141561104a57600090506110e9565b600160009054906101000a900473ffffffffffffffffffffffffffffffffffffffff1673ffffffffffffffffffffffffffffffffffffffff166370a08231306040518263ffffffff1660e01b81526004016110a591906117f9565b602060405180830381865afa1580156110c2573d6000803e3d6000fd5b505050506040513d601f19601f820116820180604052508101906110e69190612182565b90505b90565b6110f46112ff565b73ffffffffffffffffffffffffffffffffffffffff16611112610d47565b73ffffffffffffffffffffffffffffffffffffffff1614611168576040517f08c379a000000000000000000000000000000000000000000000000000000000815260040161115f90611b3b565b60405180910390fd5b600073ffffffffffffffffffffffffffffffffffffffff168173ffffffffffffffffffffffffffffffffffffffff1614156111d8576040517f08c379a00000000000000000000000000000000000000000000000000000000081526004016111cf90612221565b60405180910390fd5b6111e181611307565b50565b6111ec6112ff565b73ffffffffffffffffffffffffffffffffffffffff1661120a610d47565b73ffffffffffffffffffffffffffffffffffffffff1614611260576040517f08c379a000000000000000000000000000000000000000000000000000000000815260040161125790611b3b565b60405180910390fd5b6001600060146101000a81548160ff021916908315150217905550565b6000600160009054906101000a900473ffffffffffffffffffffffffffffffffffffffff16905090565b600081836112b59190612241565b905092915050565b600081836112cb9190612275565b905092915050565b600081836112e191906122fe565b905092915050565b600081836112f7919061232f565b905092915050565b600033905090565b60008060009054906101000a900473ffffffffffffffffffffffffffffffffffffffff169050816000806101000a81548173ffffffffffffffffffffffffffffffffffffffff021916908373ffffffffffffffffffffffffffffffffffffffff1602179055508173ffffffffffffffffffffffffffffffffffffffff168173ffffffffffffffffffffffffffffffffffffffff167f8be0079c531659141344cd1fd0a4f28419497f9722a3daafe3b4186f6b6457e060405160405180910390a35050565b61144c8363a9059cbb60e01b84846040516024016113ea929190611f53565b604051602081830303815290604052907bffffffffffffffffffffffffffffffffffffffffffffffffffffffff19166020820180517bffffffffffffffffffffffffffffffffffffffffffffffffffffffff8381831617835250505050611451565b505050565b60006114b3826040518060400160405280602081526020017f5361666545524332303a206c6f772d6c6576656c2063616c6c206661696c65648152508573ffffffffffffffffffffffffffffffffffffffff166115189092919063ffffffff16565b905060008151111561151357808060200190518101906114d391906123b1565b611512576040517f08c379a000000000000000000000000000000000000000000000000000000000815260040161150990612450565b60405180910390fd5b5b505050565b60606115278484600085611530565b90509392505050565b606082471015611575576040517f08c379a000000000000000000000000000000000000000000000000000000000815260040161156c906124e2565b60405180910390fd5b61157e85611644565b6115bd576040517f08c379a00000000000000000000000000000000000000000000000000000000081526004016115b49061254e565b60405180910390fd5b6000808673ffffffffffffffffffffffffffffffffffffffff1685876040516115e691906125e8565b60006040518083038185875af1925050503d8060008114611623576040519150601f19603f3d011682016040523d82523d6000602084013e611628565b606091505b5091509150611638828286611657565b92505050949350505050565b600080823b905060008111915050919050565b60608315611667578290506116b7565b60008351111561167a5782518084602001fd5b816040517f08c379a00000000000000000000000000000000000000000000000000000000081526004016116ae9190612643565b60405180910390fd5b9392505050565b6000604051905090565b600080fd5b600080fd5b600073ffffffffffffffffffffffffffffffffffffffff82169050919050565b60006116fd826116d2565b9050919050565b61170d816116f2565b811461171857600080fd5b50565b60008135905061172a81611704565b92915050565b600060208284031215611746576117456116c8565b5b60006117548482850161171b565b91505092915050565b6000819050919050565b6117708161175d565b82525050565b600060208201905061178b6000830184611767565b92915050565b61179a8161175d565b81146117a557600080fd5b50565b6000813590506117b781611791565b92915050565b6000602082840312156117d3576117d26116c8565b5b60006117e1848285016117a8565b91505092915050565b6117f3816116f2565b82525050565b600060208201905061180e60008301846117ea565b92915050565b60008115159050919050565b61182981611814565b82525050565b60006020820190506118446000830184611820565b92915050565b600080fd5b6000601f19601f8301169050919050565b7f4e487b7100000000000000000000000000000000000000000000000000000000600052604160045260246000fd5b6118988261184f565b810181811067ffffffffffffffff821117156118b7576118b6611860565b5b80604052505050565b60006118ca6116be565b90506118d6828261188f565b919050565b600067ffffffffffffffff8211156118f6576118f5611860565b5b602082029050602081019050919050565b600080fd5b600061191f61191a846118db565b6118c0565b9050808382526020820190506020840283018581111561194257611941611907565b5b835b8181101561196b5780611957888261171b565b845260208401935050602081019050611944565b5050509392505050565b600082601f83011261198a5761198961184a565b5b813561199a84826020860161190c565b91505092915050565b600067ffffffffffffffff8211156119be576119bd611860565b5b602082029050602081019050919050565b60006119e26119dd846119a3565b6118c0565b90508083825260208201905060208402830185811115611a0557611a04611907565b5b835b81811015611a2e5780611a1a88826117a8565b845260208401935050602081019050611a07565b5050509392505050565b600082601f830112611a4d57611a4c61184a565b5b8135611a5d8482602086016119cf565b91505092915050565b60008060408385031215611a7d57611a7c6116c8565b5b600083013567ffffffffffffffff811115611a9b57611a9a6116cd565b5b611aa785828601611975565b925050602083013567ffffffffffffffff811115611ac857611ac76116cd565b5b611ad485828601611a38565b9150509250929050565b600082825260208201905092915050565b7f4f776e61626c653a2063616c6c6572206973206e6f7420746865206f776e6572600082015250565b6000611b25602083611ade565b9150611b3082611aef565b602082019050919050565b60006020820190508181036000830152611b5481611b18565b9050919050565b7f546f6b656e56657374696e673a20546f6b656e206164647265737320616c726560008201527f6164792073657400000000000000000000000000000000000000000000000000602082015250565b6000611bb7602783611ade565b9150611bc282611b5b565b604082019050919050565b60006020820190508181036000830152611be681611baa565b9050919050565b7f546f6b656e56657374696e673a204e6f7420636f6e6669677572656420796574600082015250565b6000611c23602083611ade565b9150611c2e82611bed565b602082019050919050565b60006020820190508181036000830152611c5281611c16565b9050919050565b7f546f6b656e56657374696e673a204e6f74206c6f636b65642079657400000000600082015250565b6000611c8f601c83611ade565b9150611c9a82611c59565b602082019050919050565b60006020820190508181036000830152611cbe81611c82565b9050919050565b7f546f6b656e56657374696e673a2043616e6e6f742072656c6561736520796574600082015250565b6000611cfb602083611ade565b9150611d0682611cc5565b602082019050919050565b60006020820190508181036000830152611d2a81611cee565b9050919050565b7f546f6b656e56657374696e673a20496e76616c69642062656e6566696369617260008201527f7900000000000000000000000000000000000000000000000000000000000000602082015250565b6000611d8d602183611ade565b9150611d9882611d31565b604082019050919050565b60006020820190508181036000830152611dbc81611d80565b9050919050565b7f546f6b656e56657374696e673a2042616c616e63652077617320616c7265616460008201527f7920656d70746965640000000000000000000000000000000000000000000000602082015250565b6000611e1f602983611ade565b9150611e2a82611dc3565b604082019050919050565b60006020820190508181036000830152611e4e81611e12565b9050919050565b7f546f6b656e56657374696e673a204e6f7468696e6720746f207769746864726160008201527f7720617420746869732074696d65000000000000000000000000000000000000602082015250565b6000611eb1602e83611ade565b9150611ebc82611e55565b604082019050919050565b60006020820190508181036000830152611ee081611ea4565b9050919050565b7f546f6b656e56657374696e673a20496e76616c696420616d6f756e7400000000600082015250565b6000611f1d601c83611ade565b9150611f2882611ee7565b602082019050919050565b60006020820190508181036000830152611f4c81611f10565b9050919050565b6000604082019050611f6860008301856117ea565b611f756020830184611767565b9392505050565b7f546f6b656e56657374696e673a2042656e6566696369617269657320616e642060008201527f616d6f756e7473206d7573742068617665207468652073616d65206c656e677460208201527f6800000000000000000000000000000000000000000000000000000000000000604082015250565b6000611ffe604183611ade565b915061200982611f7c565b606082019050919050565b6000602082019050818103600083015261202d81611ff1565b9050919050565b7f546f6b656e56657374696e673a20436f6e74726163742068617320616c72656160008201527f6479206265656e206c6f636b6564000000000000000000000000000000000000602082015250565b6000612090602e83611ade565b915061209b82612034565b604082019050919050565b600060208201905081810360008301526120bf81612083565b9050919050565b7f4e487b7100000000000000000000000000000000000000000000000000000000600052603260045260246000fd5b7f4e487b7100000000000000000000000000000000000000000000000000000000600052601160045260246000fd5b600061212f8261175d565b91507fffffffffffffffffffffffffffffffffffffffffffffffffffffffffffffffff821415612162576121616120f5565b5b600182019050919050565b60008151905061217c81611791565b92915050565b600060208284031215612198576121976116c8565b5b60006121a68482850161216d565b91505092915050565b7f4f776e61626c653a206e6577206f776e657220697320746865207a65726f206160008201527f6464726573730000000000000000000000000000000000000000000000000000602082015250565b600061220b602683611ade565b9150612216826121af565b604082019050919050565b6000602082019050818103600083015261223a816121fe565b9050919050565b600061224c8261175d565b91506122578361175d565b92508282101561226a576122696120f5565b5b828203905092915050565b60006122808261175d565b915061228b8361175d565b9250817fffffffffffffffffffffffffffffffffffffffffffffffffffffffffffffffff04831182151516156122c4576122c36120f5565b5b828202905092915050565b7f4e487b7100000000000000000000000000000000000000000000000000000000600052601260045260246000fd5b60006123098261175d565b91506123148361175d565b925082612324576123236122cf565b5b828204905092915050565b600061233a8261175d565b91506123458361175d565b9250827fffffffffffffffffffffffffffffffffffffffffffffffffffffffffffffffff0382111561237a576123796120f5565b5b828201905092915050565b61238e81611814565b811461239957600080fd5b50565b6000815190506123ab81612385565b92915050565b6000602082840312156123c7576123c66116c8565b5b60006123d58482850161239c565b91505092915050565b7f5361666545524332303a204552433230206f7065726174696f6e20646964206e60008201527f6f74207375636365656400000000000000000000000000000000000000000000602082015250565b600061243a602a83611ade565b9150612445826123de565b604082019050919050565b600060208201905081810360008301526124698161242d565b9050919050565b7f416464726573733a20696e73756666696369656e742062616c616e636520666f60008201527f722063616c6c0000000000000000000000000000000000000000000000000000602082015250565b60006124cc602683611ade565b91506124d782612470565b604082019050919050565b600060208201905081810360008301526124fb816124bf565b9050919050565b7f416464726573733a2063616c6c20746f206e6f6e2d636f6e7472616374000000600082015250565b6000612538601d83611ade565b915061254382612502565b602082019050919050565b600060208201905081810360008301526125678161252b565b9050919050565b600081519050919050565b600081905092915050565b60005b838110156125a2578082015181840152602081019050612587565b838111156125b1576000848401525b50505050565b60006125c28261256e565b6125cc8185612579565b93506125dc818560208601612584565b80840191505092915050565b60006125f482846125b7565b915081905092915050565b600081519050919050565b6000612615826125ff565b61261f8185611ade565b935061262f818560208601612584565b6126388161184f565b840191505092915050565b6000602082019050818103600083015261265d818461260a565b90509291505056fea2646970667358221220c4f0804a3731e1b4c0a3262a0e0e5033b279db202ff81e9ed60c86a008333d0a64736f6c634300080a0033",
  "immutableReferences": {
    "1621": [
      {
        "length": 32,
        "start": 1153
      },
      {
        "length": 32,
        "start": 1293
      },
      {
        "length": 32,
        "start": 1935
      }
    ],
    "1623": [
      {
        "length": 32,
        "start": 1103
      },
      {
        "length": 32,
        "start": 1205
      },
      {
        "length": 32,
        "start": 1260
      },
      {
        "length": 32,
        "start": 2291
      },
      {
        "length": 32,
        "start": 2546
      }
    ],
    "1625": [
      {
        "length": 32,
        "start": 1349
      },
      {
        "length": 32,
        "start": 1895
      }
    ]
  },
  "source": "// SPDX-License-Identifier: MIT\npragma solidity 0.8.10;\n\nimport \"./lib/SafeMath.sol\";\nimport \"./lib/Address.sol\";\nimport \"./lib/SafeERC20.sol\";\n\nimport \"./Ownable.sol\";\n\n/**\n * @title TokenVesting\n * @dev Vesting for BEP20 compatible token.\n */\ncontract TokenVesting is Ownable {\n    using SafeERC20 for IERC20;\n    using SafeMath for uint256;\n\n    bool private _locked;\n\n    address private _token;\n    uint256 private immutable _endTime;\n    uint256 private immutable _startTime;\n    uint256 private immutable _startPercent;\n\n    mapping(address => uint256) private _currentBalances;\n    mapping(address => uint256) private _initialBalances;\n\n    event TokensReleased(address beneficiary, uint256 amount);\n\n    /**\n     * @dev Configures vesting for specified accounts.\n     * @param startTimeValue Timestamp after which initial amount of tokens is released.\n     * @param endTimeValue Timestamp after which entire amount of tokens is released.\n     * @param startPercentValue Percent of tokens available after initial release.\n     */\n    constructor(\n        uint256 startTimeValue,\n        uint256 endTimeValue,\n        uint8 startPercentValue\n    ) {\n        require(\n            startPercentValue <= 100,\n            \"TokenVesting: Percent of tokens available after initial time cannot be greater than 100\"\n        );\n        require(\n            endTimeValue > startTimeValue,\n            \"TokenVesting: End time must be greater than start time\"\n        );\n\n        _endTime = endTimeValue;\n        _startTime = startTimeValue;\n        _startPercent = startPercentValue;\n    }\n\n    /**\n     * @dev Add beneficiaries\n     */\n    function addBeneficiaries(\n        address[] memory beneficiaries,\n        uint256[] memory balances\n    ) public onlyOwner {\n        require(\n            beneficiaries.length == balances.length,\n            \"TokenVesting: Beneficiaries and amounts must have the same length\"\n        );\n        require(!isLocked(), \"TokenVesting: Contract has already been locked\");\n\n        for (uint256 i = 0; i < beneficiaries.length; ++i) {\n            _currentBalances[beneficiaries[i]] = balances[i];\n            _initialBalances[beneficiaries[i]] = balances[i];\n        }\n    }\n\n    /**\n     * @dev Lock the contract\n     */\n    function lock() public onlyOwner {\n        _locked = true;\n    }\n\n    /**\n     * @dev Check if contract is locked\n     */\n    function isLocked() public view returns (bool) {\n        return _locked;\n    }\n\n    /**\n     * @dev Sends all releases tokens (if any) to the caller.\n     */\n    function release() public {\n        require(_token != address(0), \"TokenVesting: Not configured yet\");\n        require(isLocked(), \"TokenVesting: Not locked yet\");\n        require(\n            block.timestamp >= _startTime,\n            \"TokenVesting: Cannot release yet\"\n        );\n        require(\n            _initialBalances[msg.sender] > 0,\n            \"TokenVesting: Invalid beneficiary\"\n        );\n        require(\n            _currentBalances[msg.sender] > 0,\n            \"TokenVesting: Balance was already emptied\"\n        );\n\n        uint256 amount = withdrawalLimit(msg.sender);\n\n        require(amount > 0, \"TokenVesting: Nothing to withdraw at this time\");\n        require(\n            _currentBalances[msg.sender] >= amount,\n            \"TokenVesting: Invalid amount\"\n        );\n\n        _currentBalances[msg.sender] = _currentBalances[msg.sender].sub(amount);\n\n        IERC20(_token).safeTransfer(msg.sender, amount);\n\n        emit TokensReleased(msg.sender, amount);\n    }\n\n    /**\n     * @dev Sets token address.\n     * @param tokenValue Token address.\n     */\n    function setToken(address tokenValue) public onlyOwner {\n        require(\n            _token == address(0),\n            \"TokenVesting: Token address already set\"\n        );\n        _token = tokenValue;\n    }\n\n    /**\n     * @dev Returns current balance for given address.\n     * @param beneficiary Address to check.\n     */\n    function currentBalance(address beneficiary) public view returns (uint256) {\n        return _currentBalances[beneficiary];\n    }\n\n    /**\n     * @dev Returns initial balance for given address.\n     * @param beneficiary Address to check.\n     */\n    function initialBalance(address beneficiary) public view returns (uint256) {\n        return _initialBalances[beneficiary];\n    }\n\n    /**\n     * @dev Returns total withdrawn for given address.\n     * @param beneficiary Address to check.\n     */\n    function totalWithdrawn(address beneficiary) public view returns (uint256) {\n        return (\n            _initialBalances[beneficiary].sub(_currentBalances[beneficiary])\n        );\n    }\n\n    /**\n     * @dev Returns withdrawal limit for given address.\n     * @param beneficiary Address to check.\n     */\n    function withdrawalLimit(address beneficiary)\n        public\n        view\n        returns (uint256)\n    {\n        return (\n            amountAllowedToWithdraw(_initialBalances[beneficiary]).sub(\n                totalWithdrawn(beneficiary)\n            )\n        );\n    }\n\n    /**\n     * @dev Returns amount allowed to withdraw for given initial initialBalanceValue.\n     * @param initialBalanceValue Initial initialBalanceValue.\n     */\n    function amountAllowedToWithdraw(uint256 initialBalanceValue)\n        public\n        view\n        returns (uint256)\n    {\n        if (\n            initialBalanceValue == 0 ||\n            _token == address(0) ||\n            block.timestamp < _startTime\n        ) {\n            return 0;\n        }\n\n        if (block.timestamp >= _endTime) {\n            return initialBalanceValue;\n        }\n\n        uint256 curTimeDiff = block.timestamp.sub(_startTime);\n        uint256 maxTimeDiff = _endTime.sub(_startTime);\n\n        uint256 beginPromile = _startPercent.mul(10);\n        uint256 otherPromile = curTimeDiff\n            .mul(uint256(1000).sub(beginPromile))\n            .div(maxTimeDiff);\n        uint256 promile = beginPromile.add(otherPromile);\n\n        if (promile >= 1000) {\n            return initialBalanceValue;\n        }\n\n        return promile.mul(initialBalanceValue).div(1000);\n    }\n\n    /**\n     * @dev Returns token address.\n     */\n    function token() public view returns (address) {\n        return _token;\n    }\n\n    /**\n     * @dev Returns current token balance.\n     */\n    function balance() public view returns (uint256) {\n        if (_token == address(0)) {\n            return 0;\n        }\n\n        return IERC20(_token).balanceOf(address(this));\n    }\n\n    /**\n     * @dev Returns end time.\n     */\n    function endTime() public view returns (uint256) {\n        return _endTime;\n    }\n\n    /**\n     * @dev Returns start time.\n     */\n    function startTime() public view returns (uint256) {\n        return _startTime;\n    }\n\n    /**\n     * @dev Returns start percent.\n     */\n    function startPercent() public view returns (uint256) {\n        return _startPercent;\n    }\n}\n",
  "sourcePath": "/Users/michalkonczak/Desktop/token-contracts/contracts/TokenVesting.sol",
  "compiler": {
    "name": "solc",
    "version": "0.8.10+commit.fc410830.Emscripten.clang"
  },
  "schemaVersion": "3.4.3",
  "updatedAt": "2021-11-29T12:39:25.844Z",
  "devdoc": {
    "details": "Vesting for BEP20 compatible token.",
    "kind": "dev",
    "methods": {
      "addBeneficiaries(address[],uint256[])": {
        "details": "Add beneficiaries"
      },
      "amountAllowedToWithdraw(uint256)": {
        "details": "Returns amount allowed to withdraw for given initial initialBalanceValue.",
        "params": {
          "initialBalanceValue": "Initial initialBalanceValue."
        }
      },
      "balance()": {
        "details": "Returns current token balance."
      },
      "constructor": {
        "details": "Configures vesting for specified accounts.",
        "params": {
          "endTimeValue": "Timestamp after which entire amount of tokens is released.",
          "startPercentValue": "Percent of tokens available after initial release.",
          "startTimeValue": "Timestamp after which initial amount of tokens is released."
        }
      },
      "currentBalance(address)": {
        "details": "Returns current balance for given address.",
        "params": {
          "beneficiary": "Address to check."
        }
      },
      "endTime()": {
        "details": "Returns end time."
      },
      "initialBalance(address)": {
        "details": "Returns initial balance for given address.",
        "params": {
          "beneficiary": "Address to check."
        }
      },
      "isLocked()": {
        "details": "Check if contract is locked"
      },
      "lock()": {
        "details": "Lock the contract"
      },
      "owner()": {
        "details": "Returns the address of the current owner."
      },
      "release()": {
        "details": "Sends all releases tokens (if any) to the caller."
      },
      "renounceOwnership()": {
        "details": "Leaves the contract without owner. It will not be possible to call `onlyOwner` functions anymore. Can only be called by the current owner. NOTE: Renouncing ownership will leave the contract without an owner, thereby removing any functionality that is only available to the owner."
      },
      "setToken(address)": {
        "details": "Sets token address.",
        "params": {
          "tokenValue": "Token address."
        }
      },
      "startPercent()": {
        "details": "Returns start percent."
      },
      "startTime()": {
        "details": "Returns start time."
      },
      "token()": {
        "details": "Returns token address."
      },
      "totalWithdrawn(address)": {
        "details": "Returns total withdrawn for given address.",
        "params": {
          "beneficiary": "Address to check."
        }
      },
      "transferOwnership(address)": {
        "details": "Transfers ownership of the contract to a new account (`newOwner`). Can only be called by the current owner."
      },
      "withdrawalLimit(address)": {
        "details": "Returns withdrawal limit for given address.",
        "params": {
          "beneficiary": "Address to check."
        }
      }
    },
    "title": "TokenVesting",
    "version": 1
  },
  "userdoc": {
    "kind": "user",
    "methods": {},
    "version": 1
  }
}